{
  "_format": "hh-sol-artifact-1",
  "contractName": "SmartAgreement",
  "sourceName": "contracts/SmartAgreement.sol",
  "abi": [
    {
      "inputs": [
        {
          "internalType": "address",
          "name": "_partyA",
          "type": "address"
        },
        {
          "internalType": "address",
          "name": "_partyB",
          "type": "address"
        },
        {
          "internalType": "uint256",
          "name": "_amount",
          "type": "uint256"
        }
      ],
      "stateMutability": "payable",
      "type": "constructor"
    },
    {
      "anonymous": false,
      "inputs": [],
      "name": "ContractActivated",
      "type": "event"
    },
    {
      "anonymous": false,
      "inputs": [],
      "name": "ContractCompleted",
      "type": "event"
    },
    {
      "anonymous": false,
      "inputs": [
        {
          "indexed": true,
          "internalType": "address",
          "name": "partyA",
          "type": "address"
        },
        {
          "indexed": true,
          "internalType": "address",
          "name": "partyB",
          "type": "address"
        },
        {
          "indexed": false,
          "internalType": "uint256",
          "name": "amount",
          "type": "uint256"
        }
      ],
      "name": "ContractCreated",
      "type": "event"
    },
    {
      "anonymous": false,
      "inputs": [],
      "name": "ContractDisputed",
      "type": "event"
    },
    {
      "inputs": [],
      "name": "activateContract",
      "outputs": [],
      "stateMutability": "nonpayable",
      "type": "function"
    },
    {
      "inputs": [],
      "name": "completeContract",
      "outputs": [],
      "stateMutability": "nonpayable",
      "type": "function"
    },
    {
      "inputs": [],
      "name": "contractAmount",
      "outputs": [
        {
          "internalType": "uint256",
          "name": "",
          "type": "uint256"
        }
      ],
      "stateMutability": "view",
      "type": "function"
    },
    {
      "inputs": [],
      "name": "disputeContract",
      "outputs": [],
      "stateMutability": "nonpayable",
      "type": "function"
    },
    {
      "inputs": [],
      "name": "isCompleted",
      "outputs": [
        {
          "internalType": "bool",
          "name": "",
          "type": "bool"
        }
      ],
      "stateMutability": "view",
      "type": "function"
    },
    {
      "inputs": [],
      "name": "partyA",
      "outputs": [
        {
          "internalType": "address",
          "name": "",
          "type": "address"
        }
      ],
      "stateMutability": "view",
      "type": "function"
    },
    {
      "inputs": [],
      "name": "partyB",
      "outputs": [
        {
          "internalType": "address",
          "name": "",
          "type": "address"
        }
      ],
      "stateMutability": "view",
      "type": "function"
    },
    {
      "inputs": [],
      "name": "state",
      "outputs": [
        {
          "internalType": "enum SmartAgreement.ContractState",
          "name": "",
          "type": "uint8"
        }
      ],
      "stateMutability": "view",
      "type": "function"
    }
  ],
  "bytecode": "0x608060405260405162000f6738038062000f6783398181016040528101906200002991906200022a565b8034146200006e576040517f08c379a00000000000000000000000000000000000000000000000000000000081526004016200006590620002f9565b60405180910390fd5b826000806101000a81548173ffffffffffffffffffffffffffffffffffffffff021916908373ffffffffffffffffffffffffffffffffffffffff16021790555081600160006101000a81548173ffffffffffffffffffffffffffffffffffffffff021916908373ffffffffffffffffffffffffffffffffffffffff160217905550806002819055506000600360016101000a81548160ff0219169083600381111562000143577f4e487b7100000000000000000000000000000000000000000000000000000000600052602160045260246000fd5b0217905550600160009054906101000a900473ffffffffffffffffffffffffffffffffffffffff1673ffffffffffffffffffffffffffffffffffffffff1660008054906101000a900473ffffffffffffffffffffffffffffffffffffffff1673ffffffffffffffffffffffffffffffffffffffff167f77594c7fa34419efb1eaaabf29a576f56c88a9b7877b9c55a53c74da44ad609e600254604051620001eb91906200031b565b60405180910390a3505050620003bb565b6000815190506200020d8162000387565b92915050565b6000815190506200022481620003a1565b92915050565b6000806000606084860312156200024057600080fd5b60006200025086828701620001fc565b93505060206200026386828701620001fc565b9250506040620002768682870162000213565b9150509250925092565b60006200028f60248362000338565b91507f416d6f756e7420646f6573206e6f74206d6174636820636f6e7472616374207660008301527f616c7565000000000000000000000000000000000000000000000000000000006020830152604082019050919050565b620002f3816200037d565b82525050565b60006020820190508181036000830152620003148162000280565b9050919050565b6000602082019050620003326000830184620002e8565b92915050565b600082825260208201905092915050565b600062000356826200035d565b9050919050565b600073ffffffffffffffffffffffffffffffffffffffff82169050919050565b6000819050919050565b620003928162000349565b81146200039e57600080fd5b50565b620003ac816200037d565b8114620003b857600080fd5b50565b610b9c80620003cb6000396000f3fe608060405234801561001057600080fd5b50600436106100885760003560e01c80638fda356d1161005b5780638fda356d146100f1578063b4fedc11146100fb578063c19d93fb14610105578063fa391c641461012357610088565b806310e1d8ca1461008d57806329040113146100ab5780634010b84e146100c9578063565a57ca146100d3575b600080fd5b610095610141565b6040516100a29190610999565b60405180910390f35b6100b3610165565b6040516100c09190610999565b60405180910390f35b6100d161018b565b005b6100db610359565b6040516100e89190610a8a565b60405180910390f35b6100f961035f565b005b610103610530565b005b61010d610785565b60405161011a91906109cf565b60405180910390f35b61012b610798565b60405161013891906109b4565b60405180910390f35b60008054906101000a900473ffffffffffffffffffffffffffffffffffffffff1681565b600160009054906101000a900473ffffffffffffffffffffffffffffffffffffffff1681565b60008054906101000a900473ffffffffffffffffffffffffffffffffffffffff1673ffffffffffffffffffffffffffffffffffffffff163373ffffffffffffffffffffffffffffffffffffffff1614610219576040517f08c379a000000000000000000000000000000000000000000000000000000000815260040161021090610a6a565b60405180910390fd5b60016003811115610253577f4e487b7100000000000000000000000000000000000000000000000000000000600052602160045260246000fd5b600360019054906101000a900460ff16600381111561029b577f4e487b7100000000000000000000000000000000000000000000000000000000600052602160045260246000fd5b146102db576040517f08c379a00000000000000000000000000000000000000000000000000000000081526004016102d2906109ea565b60405180910390fd5b60038060016101000a81548160ff02191690836003811115610326577f4e487b7100000000000000000000000000000000000000000000000000000000600052602160045260246000fd5b02179055507ffa353c658f679b9bc385ff428f0032950f23be209828e2667a18c830392ae2cd60405160405180910390a1565b60025481565b600160009054906101000a900473ffffffffffffffffffffffffffffffffffffffff1673ffffffffffffffffffffffffffffffffffffffff163373ffffffffffffffffffffffffffffffffffffffff16146103ef576040517f08c379a00000000000000000000000000000000000000000000000000000000081526004016103e690610a0a565b60405180910390fd5b60006003811115610429577f4e487b7100000000000000000000000000000000000000000000000000000000600052602160045260246000fd5b600360019054906101000a900460ff166003811115610471577f4e487b7100000000000000000000000000000000000000000000000000000000600052602160045260246000fd5b146104b1576040517f08c379a00000000000000000000000000000000000000000000000000000000081526004016104a890610a2a565b60405180910390fd5b6001600360016101000a81548160ff021916908360038111156104fd577f4e487b7100000000000000000000000000000000000000000000000000000000600052602160045260246000fd5b02179055507fe09eb0ac9bad92f05e0b489e6fc1d3e349861ffd8a2548182ef06278968a9bd060405160405180910390a1565b60008054906101000a900473ffffffffffffffffffffffffffffffffffffffff1673ffffffffffffffffffffffffffffffffffffffff163373ffffffffffffffffffffffffffffffffffffffff16146105be576040517f08c379a00000000000000000000000000000000000000000000000000000000081526004016105b590610a6a565b60405180910390fd5b600160038111156105f8577f4e487b7100000000000000000000000000000000000000000000000000000000600052602160045260246000fd5b600360019054906101000a900460ff166003811115610640577f4e487b7100000000000000000000000000000000000000000000000000000000600052602160045260246000fd5b14610680576040517f08c379a000000000000000000000000000000000000000000000000000000000815260040161067790610a4a565b60405180910390fd5b6002600360016101000a81548160ff021916908360038111156106cc577f4e487b7100000000000000000000000000000000000000000000000000000000600052602160045260246000fd5b02179055506001600360006101000a81548160ff021916908315150217905550600160009054906101000a900473ffffffffffffffffffffffffffffffffffffffff1673ffffffffffffffffffffffffffffffffffffffff166108fc6002549081150290604051600060405180830381858888f19350505050158015610756573d6000803e3d6000fd5b507f21af1b35312e092d631654105d02329ce4aa3a7aa58f89d2e61e3fa80874dd8c60405160405180910390a1565b600360019054906101000a900460ff1681565b600360009054906101000a900460ff1681565b6107b481610ab6565b82525050565b6107c381610ac8565b82525050565b6107d281610b11565b82525050565b60006107e5602b83610aa5565b91507f436f6e7472616374206973206e6f7420616374697665206f7220616c7265616460008301527f7920636f6d706c657465640000000000000000000000000000000000000000006020830152604082019050919050565b600061084b602683610aa5565b91507f4f6e6c7920706172747920422063616e2065786563757465207468697320667560008301527f6e6374696f6e00000000000000000000000000000000000000000000000000006020830152604082019050919050565b60006108b1602083610aa5565b91507f436f6e7472616374206973206e6f7420696e20437265617465642073746174656000830152602082019050919050565b60006108f1601683610aa5565b91507f436f6e7472616374206973206e6f7420616374697665000000000000000000006000830152602082019050919050565b6000610931602683610aa5565b91507f4f6e6c7920706172747920412063616e2065786563757465207468697320667560008301527f6e6374696f6e00000000000000000000000000000000000000000000000000006020830152604082019050919050565b61099381610b07565b82525050565b60006020820190506109ae60008301846107ab565b92915050565b60006020820190506109c960008301846107ba565b92915050565b60006020820190506109e460008301846107c9565b92915050565b60006020820190508181036000830152610a03816107d8565b9050919050565b60006020820190508181036000830152610a238161083e565b9050919050565b60006020820190508181036000830152610a43816108a4565b9050919050565b60006020820190508181036000830152610a63816108e4565b9050919050565b60006020820190508181036000830152610a8381610924565b9050919050565b6000602082019050610a9f600083018461098a565b92915050565b600082825260208201905092915050565b6000610ac182610ae7565b9050919050565b60008115159050919050565b6000819050610ae282610b52565b919050565b600073ffffffffffffffffffffffffffffffffffffffff82169050919050565b6000819050919050565b6000610b1c82610ad4565b9050919050565b7f4e487b7100000000000000000000000000000000000000000000000000000000600052602160045260246000fd5b60048110610b6357610b62610b23565b5b5056fea264697066735822122014c042a697b05b3a77cf1a8b3fcba893d09aac8428491fb906df0bde6b0b150864736f6c63430008000033",
  "linkReferences": {},
  "deployedLinkReferences": {}
}